{
  "_format": "hh-sol-artifact-1",
  "contractName": "Counter",
  "sourceName": "contracts/Counter.sol",
  "abi": [
    {
      "inputs": [],
      "stateMutability": "nonpayable",
      "type": "constructor"
    },
    {
      "inputs": [],
      "name": "add",
      "outputs": [],
      "stateMutability": "nonpayable",
      "type": "function"
    },
    {
      "inputs": [],
      "name": "getCounts",
      "outputs": [
        {
          "internalType": "uint256",
          "name": "",
          "type": "uint256"
        }
      ],
      "stateMutability": "view",
      "type": "function"
    }
  ],
  "bytecode": "0x608060405234801561001057600080fd5b5060008081905550610150806100276000396000f3fe608060405234801561001057600080fd5b50600436106100365760003560e01c80634f2be91f1461003b578063a537389914610045575b600080fd5b610043610063565b005b61004d61007a565b60405161005a919061009c565b60405180910390f35b600160005461007291906100e6565b600081905550565b60008054905090565b6000819050919050565b61009681610083565b82525050565b60006020820190506100b1600083018461008d565b92915050565b7f4e487b7100000000000000000000000000000000000000000000000000000000600052601160045260246000fd5b60006100f182610083565b91506100fc83610083565b9250828201905080821115610114576101136100b7565b5b9291505056fea2646970667358221220bd953df00629add3e0025912db0ee16a8e15d143510a2bd3d1a51236ca815c8664736f6c63430008110033",
  "linkReferences": {},
  "deployedLinkReferences": {}
}